:020000040001F9
:10C0000000000120ED2A0200252B0200272B020050
:10C01000292B02002B2B02002D2B02000000000018
:10C020000000000000000000000000007915020080
:10C0300000000000000000001F1602007F16020032
:10C04000352B0200352B0200352B0200352B020068
:10C05000352B0200352B0200352B0200352B020058
:10C06000352B0200352B0200352B0200352B020048
:10C07000352B0200352B0200352B0200352B020038
:10C08000352B0200352B0200352B0200352B020028
:10C09000352B0200352B0200352B0200352B020018
:10C0A000352B0200352B0200352B0200352B020008
:10C0B000352B0200352B02000000000000000000BC
:10C0C000352B0200352B0200352B0200352B0200E8
:10C0D000352B0200352B0200352B020010B5054C24
:10C0E000237833B9044B13B10448AFF30080012324
:10C0F000237010BD6039002000000000806803003C
:10C10000084B10B51BB108480849AFF30080084838
:10C11000036803B910BD074B002BFBD0BDE81040EE
:10C12000184700BF00000000806803006439002049
:10C130008838002000000000154B002B08BF134B6F
:10C140009D46A3F5803A00218B460F461348144ABA
:10C15000121A0FF009FB0F4B002B00D098470E4B23
:10C16000002B00D098470020002104000D000D484E
:10C17000002802D00C4804F051FF0EF041FE2000D0
:10C18000290004F017FF04F046FF00BF000008007C
:10C190000000012000000000A70F0200603900200D
:10C1A000985800201D10020000000000007B70471E
:10C1B00070B50446054654F8043B7BB90C4E4FF06D
:10C1C000FF31306805F034FC2B6823B914B12046E8
:10C1D00005F098F82C60306805F052FC2B68A342FB
:10C1E00004D004480449592204F02AFD286870BD8F
:10C1F000AC520020E8560300FC56030038B5044654
:10C200000D4B036000234360A16002730B480D4691
:10C21000FFF7CEFF4FF0FF3105F08CF825B1084B4A
:10C220001A6862601C6000E065600448FFF7C0FFA8
:10C2300005F083F8204638BDE05603008039002021
:10C240007C390020134B10B5036004461248FFF7F9
:10C25000AFFF4FF0FF3105F06DF8A3686BB10F4AE7
:10C260001368A34202D16368136006E05A68A242D1
:10C2700001D01346FAE762685A600748FFF798FF53
:10C2800005F05BF8237B13B9204604F035FF204608
:10C2900010BD00BFE0560300803900207C3900202B
:10C2A00010B50446FFF7CEFF204604F017FF2046E6
:10C2B00010BD000070B506460F480D46FFF778FF29
:10C2C0004FF0FF3105F036F80C4B1C686CB1A068DC
:10C2D00048B131462A4610F04FF820B9A06810F056
:10C2E0001DF8A84201D06468F0E70348FFF760FF3B
:10C2F00005F023F8204670BD803900207C390020ED
:10C3000010B50023036043600A782F2A044613D136
:10C310004A788AB1481C2060194623681A782F2A67
:10C3200002D10133236004E01AB1013301312360EB
:10C33000F3E7FFF7BFFF6060204610BD006870475D
:10C34000406808B520B1FFF731FF431E58425841FD
:10C3500008BD10B50446FFF7F3FF00B1606810BDDB
:10C36000406808B520B1FFF721FFB0FA80F040091E
:10C3700008BD10B50446FFF7F3FF00B1606810BDBB
:10C380004068003018BF01207047C36810B50446EC
:10C390000BB19B689847204610BD7047036818474B
:10C3A00008B10B68036070477047C36810B5044656
:10C3B0000BB19B689847204610BD000010B5084B94
:10C3C000044640F8083B07F0C1F804F11C00FFF7F1
:10C3D000ECFF04F10C00FFF7E8FF204610BD00BFA2
:10C3E0003857030010B50446FFF7E8FF204604F075
:10C3F00075FE204610BD884238B504460D460AD069
:10C40000FFF7D3FF3CB1EB681BB15B6820462946C0
:10C410009847EB68E360204638BD0000F0B5164B46
:10C42000036085B0002304460371836083618362E7
:10C430000D46124F124E009769460C300396FFF7D7
:10C44000DAFF6846FFF7B1FF694604F11C00009768
:10C450000396FFF7D0FF6846FFF7A7FF2946094A72
:10C46000234604F1080007F03DF8201D294604F09A
:10C4700042FB204605B0F0BD385703009BC30100C6
:10C480002057030051C501007FB50E46044607F052
:10C49000F7F8F56804F10C00083435B13146FFF7C0
:10C4A000AAFF012120460A460CE0094B0093694689
:10C4B000084B0393FFF79FFF6846FFF776FF204680
:10C4C00001212A4607F080F807F01EF904B070BD7C
:10C4D0009BC30100205703007FB50E46044607F0BA
:10C4E000CFF8F56804F11C00083435B13146FFF788
:10C4F00082FF2046022101220CE0094B009369468D
:10C50000084B0393FFF777FF6846FFF74EFF20467F
:10C5100002212A4607F058F807F0F6F804B070BD7B
:10C520009BC3010020570300C36810B504462BB914
:10C530000548064940F21F2204F082FBE3682046CA
:10C540001B68BDE8104018474057030045570300DB
:10C55000012908B502D0022902D008BD0C3000E044
:10C560001C30FFF7E1FF08BD70B506460D4B46F8DD
:10C57000743B04465EB100F19405B54207D0103D0E
:10C58000EB68002BF9D09B6828469847F5E704F143
:10C590003800FFF7FAFE04F12800FFF7F6FE204608
:10C5A00070BD00BFE057030010B50446FFF7DCFF85
:10C5B000204604F093FD204610BD0368DB69184750
:10C5C00003685B69184703689B6A184700F090B8D6
:10C5D000A0F19800FFF7FABF00F08DB8A0F1980025
:10C5E000FFF7FABFAC304FF0FF3104F0A3BEA0F16B
:10C5F0009800FFF7F7BFAC3004F09FBEA0F19800A1
:10C60000FFF7F9BF38B504461D46049B00F07AF8E1
:10C61000294604F1980000F01FF9064B03F10802C7
:10C6200028332260C4F8983004F1AC0004F06AFEAC
:10C63000204638BD685703000A4B10B503F10802C5
:10C64000283304460260C0F89830AC3004F078FE1D
:10C6500004F1980000F01EF92046FFF785FF204600
:10C6600010BD00BF68570300A0F19800FFF7E4BFBA
:10C6700010B50446FFF7E0FF204604F02FFD2046EA
:10C6800010BDA0F19800F3E770477047704710B5F0
:10C6900080B1146853680CB9DA070BD513F0010F99
:10C6A0004FEA63031CBFC258145918442346BDE81F
:10C6B0001040184710BD000070B50C01031900EBC5
:10C6C0000115D3F88030064674352BB90648074962
:10C6D00040F21F2204F0B4FA34442846D4F88030E3
:10C6E000BDE870401B6818474057030045570300DA
:10C6F0004C300CF08DB810B54C300C460CF05CF999
:10C70000204610BD2DE9F04387B0002590460095E6
:10C7100002460195044689461F469DE80300274BC3
:10C7200042F8083B264B82E80300236148F20703E6
:10C730006361244BE561A46122626362BFF36F8F82
:10C74000BFF34F8F04F14C0628226563656484F8BB
:10C75000485084F8495030460FF006F802A9C4F852
:10C760008050C4F89050C4F89470174D174F02973A
:10C7700004F174000595FFF73EFE02A8FFF715FED1
:10C7800002A904F1840002970595FFF734FE02A880
:10C79000FFF70BFE4246304649460CF059F830464A
:10C7A000D4F894100CF000F83046094922460CF0F9
:10C7B00019F8204607B0BDE8F08300BFE05703003A
:10C7C00001A090E88FC601002057030089C6010030
:10C7D000B9C601007047704700207047F8B503687C
:10C7E0009B6B0E4604468F1898473546BD4208D0CD
:10C7F000236815F8011B1B6C204698470130F5D1C2
:10C800002F4623682046DB6B9847B81BF8BDF8B568
:10C8100003689B6B0E4604468F1898473546BD4209
:10C8200008D0236820465B6C9847431C02D005F86B
:10C83000010BF4E723682046DB6B9847A81BF8BD83
:10C84000002070470020704770470020704700208C
:10C8500070470020704700001FB504460022FFF714
:10C86000CDFC094B236000232361224601A8074920
:10C870000FF048FB064901A80DF046FE206104F0C8
:10C88000CFFB204604B010BD405803008858030079
:10C890008C58030010B5064B0360044600690DF088
:10C8A0001DFC044B23602046FFF7CCFC204610BD46
:10C8B00040580300F85703000EB477B5036807AD7E
:10C8C000044655F8046B9B6B9847206901950DF061
:10C8D000CDFC3146019A206913F0FEFF236805461E
:10C8E000DB6B20469847284603B0BDE8704003B094
:10C8F000704700004368416970B50446194400F070
:10C9000011F9636A04F118052BB90648064940F28B
:10C910001F2204F095F9636A28461B68BDE8704041
:10C92000184700BF405703004557030038B5054678
:10C930000C4606F0A5FE284600F0FAF86C6128695E
:10C9400004F069F90119284600F0ECF8BDE8384018
:10C9500006F0DABE7FB5064606F1180406F090FE32
:10C960006D46304600F0E4F80023AC4203930BD050
:10C970002046FFF71AFD3CB1039B1BB15B682046C4
:10C9800069469847039B73622846FFF70EFD06F041
:10C99000BBFE04B070BD000038B50546064B45F837
:10C9A000183B0446FFF7D6FF2846FFF7FEFC20465B
:10C9B00000F0C4F8204638BD9858030010B504466E
:10C9C000FFF7EAFF204604F089FB204610BD000077
:10C9D000436A70B5044600F118052BB905480649AD
:10C9E00040F21F2204F02CF9636A28461B68BDE858
:10C9F00070401847405703004557030010B5034BDC
:10CA000003600446FFF7C8FF204610BDB05803007E
:10CA100010B50446FFF7F2FF204604F05FFB204606
:10CA200010BD10B5044606F02BFE23682BB9E06854
:10CA300004F0F1F8012360602360BDE8104006F0C7
:10CA400063BE38B5054606F01BFE2C6824B1E868C5
:10CA500004F0E1F86C68041B06F056FE204638BD71
:10CA600010B5044606F00CFE2046FFF7EAFFA36867
:10CA700018440023A0602360BDE8104006F044BEC7
:10CA800038B5054606F0FCFD2846AC68FFF7D9FF2F
:10CA9000044406F039FE204638BD000008B5FFF713
:10CAA000EFFF07EE900AB8EEE77ADFED037AC7EE04
:10CAB000277A17EE900A08BD0024744910B5044681
:10CAC00006F0DEFDE06804F0A6F800236060A360D5
:10CAD000BDE8104006F018BE002310B503604360A7
:10CAE0008360044604F09AF8E0602046FFF7E6FF12
:10CAF000204610BD03689B6818470000074B10B51F
:10CB00000360002343608360C360044604F086F83A
:10CB10000349206104F012F8204610BDC8580300F4
:10CB2000F5CA010003460A460069191D04F033B82E
:10CB300001460431006904F04FB8000010B5034B02
:10CB400003600446FFF7F4FF204610BDC8580300F9
:10CB5000704703680BB1084618477047F0B5456841
:10CB600007682B680C4607C987B09E6801AB83E84D
:10CB70000700E268049200220592284639461A46C8
:10CB8000B04707B0F0BD000070B504460025216035
:10CB90000E464560294608300C220EF0E5FD084B94
:10CBA000A56163614EB9074D2B6813B903F022FDEF
:10CBB0002860236855F823306360204670BD00BFAD
:10CBC00053CB0100BC39002070B560B90E4C25680C
:10CBD0003DB91C2004F076FA29460646FFF7D4FF3B
:10CBE0002660206870BD094C2368DB070AD4204604
:10CBF00004F022FA30B106480121FFF7C5FF2046B4
:10CC000004F044FA024870BD9C390020C03900206D
:10CC1000A0390020436810B5044613B9044804F055
:10CC2000B5F860680368BDE810409B69184700BF0D
:10CC300002590300436810B5044613B9044804F0D0
:10CC4000A5F860680368BDE810401B6A184700BF7C
:10CC500002590300436810B5044613B9044804F0B0
:10CC600095F860680368BDE810405B6B184700BF2B
:10CC700002590300034607B59A68083032B1054AE5
:10CC800022B102A941F8043D5B69984703B05DF801
:10CC900004FB00BF51CB0100704708B50846FFF701
:10CCA00093FFBDE80840FFF7E5BF30B54FF47A7455
:10CCB00040F271256143B1FBF5F189B2032983800C
:10CCC0009DF80C30837198BF0423018098BF0380C6
:10CCD0000388B3F5804F88BF4FF4804304FB02F212
:10CCE000B2FBF5F292B288BF0380032A98BF0423F7
:10CCF000428098BF43804388B3F5804F84BF4FF490
:10CD00008043438030BD70DF704771DF70470BF0A8
:10CD10004BBA0000064B10B51C783CB901222046E6
:10CD20001A7003F065FC2146FFF7B7FF002010BD25
:10CD3000C43900202DE9F047054686B006F05AFDBB
:10CD4000284608F0ABFD284600F02CFA002003F03E
:10CD50004FFC036881469B699847D9F80030044628
:10CD60001B6A48469847D9F800300746DB6A4846B0
:10CD700098472B88103B0D2B00F2EA80DFE813F078
:10CD80000E006700E800E800E800A700E800E800FF
:10CD9000E800E800E800B000E800C800AE8895F8B8
:10CDA00016802046314601F07DFB94F85830297AF0
:10CDB000EA7B03F0FE0343F0020384F8583094F852
:10CDC0005630013384F8563000238DF803108DF867
:10CDD00004308DF805308DF806308DF807308DF869
:10CDE00008308DF809308DF80A208DF80B308DF859
:10CDF0000C308DF80D308DF80E308DF80F308DF829
:10CE0000103005F1090105F11803062201A8ADF85B
:10CE100000608DF8028005930EF0A8FB0DF10B0069
:10CE200005F1100106220EF0A1FBD4F89830C4F8E9
:10CE30009C30D4F89C00002800F08A80C3686946C2
:10CE40009847D4F89C30002BEFD01B69EFE74FF6E2
:10CE5000FF712046AE8801F025FBD9F8003095F827
:10CE600008809B6A484698478146314600F5F6702F
:10CE7000062200F06DFFB9F83830B34205D1D9F879
:10CE8000343009F134009B68984794F85630013BE0
:10CE9000DBB284F856302BB994F8582063F3410282
:10CEA00084F85820ADF800608DF80280D4F8A430E2
:10CEB000C4F8A830D4F8A800002849D0C36869464F
:10CEC0009847D4F8A830002BF0D01B69F0E74369ED
:10CED000AA8805F10801002B3AD01046984737E0A0
:10CEE0002E7A2EB994F8583066F3000384F858303F
:10CEF000636E6BB31A4A5AB3A366A06E40B3C3689D
:10CF000031469847A36E0BB9636EF5E71B69F3E7EB
:10CF10002B7C95F80FA005F109016846062203F065
:10CF20000109C3F34108C3F3C4060EF01FFB05F16A
:10CF300011038DF806A08DF8096003938DF8079012
:10CF40008DF80880D4F88C3004F180006946984749
:10CF50003846294602F094F906B0BDE8F08700BFD4
:10CF600051CB010000B5162089B0244905F0E4FD3D
:10CF700001238DF8003007238DF8033000238DF84E
:10CF800001308DF8023068461D491E4B48220BF0D7
:10CF90007FFA08B10BF066F90320012103AA0BF018
:10CFA000E7FA4FF4C06307939DF8183043F001038C
:10CFB0008DF818300423ADF80C3008B107201AE0C2
:10CFC00003A80BF0EDFA0028F8D101A8FFF79DFEA9
:10CFD0000028F3D101A9FFF796FE0028EED10A48F8
:10CFE0000BF0A0FA80B230B908480BF0A5FA80B275
:10CFF00008B900F099F909B05DF804FB4D8502000D
:10D00000C839002015CD010035CD01000FCD01003C
:10D010000346002210B503F8012B00F11102002491
:10D0200003F8014B9342FAD1418210BD08B5037851
:10D030003BB90B788BB9428A4B8A9A420DD10120B9
:10D0400008BD012B09D10B78012B06D1013001312C
:10D0500010220EF059FA0028F1D0002008BD00007F
:10D06000F0B590F85F30022B8FB004460E4640F0CA
:10D070008C802422002105A80EF076FB06A8002152
:10D08000FFF7C6FF00238DF82C30ADF82E30ADF839
:10D090003030ADF83230ADF83430D4F89421059BFF
:10D0A0009A421DD104F5CC7006A9FFF7BFFFB8B1B5
:10D0B00094F8AC319DF82C2053405B0610D1B4F8A5
:10D0C000AE21BDF82E309A420AD1D4F8B0210C9B83
:10D0D0009A4205D1B4F8B421BDF834309A4251D007
:10D0E00004F5CA7566BB94F85C30182202FB034352
:10D0F0003146B3F87630A4F8B23104F1300768460F
:10D10000FFF786FF38466946FFF790FF90B938462B
:10D1100004F5CC71FFF78AFF90B1314605A8FFF7FF
:10D1200077FFA01D05A9FFF781FF80F0010010F037
:10D13000FF0F05D0636C04F144000BB1184B5BBBCF
:10D140000021242205A80EF00FFB0EAF06A8002137
:10D15000FFF75EFF00238DF82C30ADF82E30ADF8D0
:10D160003030ADF8323005AE27F8043D2B4632465C
:10D1700003CABA4218605960164603F10803F6D193
:10D1800012881A80012384F85F3094F85C300133F0
:10D1900084F85C300FB0F0BD236D29469847CFE787
:10D1A00051CB01007FB50446002003F021FA03684B
:10D1B0009B6A98472388303B054600F1340600F50A
:10D1C000F670092B00F29E80DFE803F0059C1284C4
:10D1D000911E2A9C4665E3882BB9304604F10C0168
:10D1E00002F0D4FA8EE06B6B30469B68984789E07A
:10D1F000E388304623B904F10C0102F051FB81E0D1
:10D200000021FFF72DFF7DE06B6B30465B68984790
:10D21000002877D0304604F10C0102F099FB71E050
:10D22000A388ADF80030A389ADF80230E389ADF8EA
:10D230000430123434F8023CADF806300294AB6886
:10D24000EB60E86800285DD0C36869469847EB68E2
:10D25000002BF4D01B69F3E7A388ADF80030A38955
:10D26000ADF80230A37B8DF80430238AADF8063088
:10D27000143434F8023CADF8083003946B69AB61A8
:10D28000A86900283ED0C36869469847AB69002B5F
:10D29000F4D01B69F3E7A388ADF80030A389ADF89B
:10D2A0000230A37B8DF80430123434F8023C02942F
:10D2B000ADF806302B6A2BB3164A1AB36B62686A54
:10D2C00000B3C368694698476B6A0BB92B6AF5E7E8
:10D2D0001B69F3E7E388A18823B1B3F5857F0ED1FD
:10D2E00000220DE004F10C0200F040FD0AE0E388AA
:10D2F000A18823B904F10C0200F07EFD02E00B22AC
:10D3000000F026FD304602F055FC304602F0D8FB16
:10D3100004B070BD51CB010077DF704778DF7047F4
:10D320007ADF70477CDF70471FB500230393282303
:10D33000ADF808304FF4C873ADF80A30ADF80E30D0
:10D340009DF804301048012262F3030304AC62F339
:10D35000071304F80C3D0EF0E1FF0B4982B22046A2
:10D36000FFF7E0FF80B268B94FF40070FFF7D6FF17
:10D3700080B238B902A8FFF7D3FF80B210B9FFF727
:10D38000CBFF80B204B010BD6559030087DF704742
:10D3900068DF704737B50446002003F029F90368B9
:10D3A000DB6A9847237805460C2B74D8DFE803F036
:10D3B000500715476C6173547373735B5D00374B93
:10D3C00060881B786C6803F00101C3F34002C3F36B
:10D3D000021304B1A04701222EE0237A012B02D1CF
:10D3E000A08808F0CFFBAB6860880BB1002198479C
:10D3F000608801A9FFF7CAFF9DF8043003F00F020F
:10D40000012A02D0022A07D010E01B09013B022B9F
:10D410000CD8234AD15C0AE01B09012B04D0022B53
:10D420000CBF0521002102E0042100E000216088FA
:10D43000EB6803B1984700221A4B1A702BE0618900
:10D440006088AB68B1F5805F34BFC9B28821F0E76E
:10D45000A08808F097FB1EE0637AE3B92B69608827
:10D46000CBB1984717E0002200E003220E4B1A6070
:10D4700011E00AF0C9FC0E2803460CD033F0080373
:10D4800009D00AF0EFFE06E002A9012301F8043DED
:10D49000608808F089FA03B030BD00BFFC2E002080
:10D4A0006B590300153A0020103A0020014B187800
:10D4B000704700BF143A0020F7B5214C1646227879
:10D4C00005460F46AABB6BB102A9222041F8083DD0
:10D4D000FFF75EFF30B108282FD011280CBF0520C0
:10D4E00004202BE008F0EEF928BB164A137865F308
:10D4F000000367F3410366F306131370D37815B185
:10D5000043F0030303E065F3000365F341030D48B3
:10D51000D37008F02FFA10B90B4808F017FA072853
:10D5200005D0082809D030B90123237006E0042073
:10D5300004E0002002E00B2000E0062003B0F0BD74
:10D54000143A0020FC2E002095D3010010B5084CA1
:10D550001123236008F098FA28B92368112BFCD016
:10D56000034B186818B108280CBF06200B2010BD0B
:10D57000103A002013B50C4601A908F021FAA8B909
:10D580009DF8043003F0020202F0FF0112B1022301
:10D59000237017E013F0010313D00B4B1B781BB162
:10D5A0000123237008460DE023700AE0082806D006
:10D5B00043F2020398420CBF04200B2002E0062035
:10D5C00000E0184602B010BD153A0020012910B540
:10D5D00004460CD002292CD1184B1A7842F00102D3
:10D5E0006FF341021A70DA7842F0010209E0134B3E
:10D5F0001A7802F0FE026FF341021A70DA786FF3C4
:10D6000000020E48DA7008F0B5F9014618B9204654
:10D6100008F0C0F90146072907D008290BD031B915
:10D62000074B01221A70084610BD042010BD0B20C4
:10D6300010BD022010BD062010BD00BFFC2E002032
:10D64000143A002008B5084B1B7802464BB1002065
:10D65000082108F0ABF928B10E280CBF03200620E2
:10D6600008BD092008BD00BF143A002006F08ABF9B
:10D6700002230B708E230B714F230A464B717C23C0
:10D680008B710132043106F053BFA2DF7047A3DF74
:10D69000704763DF70470000014B00221A6070473B
:10D6A000183A00207FB500238DF8073002AAC15C2C
:10D6B00099540133102BF9D110460DF10701FFF7F2
:10D6C000E8FF10B99DF8070000E0002007B05DF802
:10D6D00004FB000003782DE9F7430646478A13B39D
:10D6E000274D2C6800F101090023A3421ED02549D3
:10D6F0004FEA031E0EEB030008440022A2F1020CC5
:10D70000BCF1010F05D910F8028019F802C0E045FC
:10D7100007D10132102AF1D173440B4493F81080E1
:10D7200021E00133E1E74FF001081CE04846FFF734
:10D73000B9FF337880460BB906F11209042C12D0D8
:10D74000104E04EB04104946102230440DF00EFF39
:10D750002B6803EB03123244002101339170D17026
:10D7600082F810802B608DF80680BDF8063000200E
:10D7700067F30F0063F31F4003B0BDE8F08300BF01
:10D78000183A00201C3A00202DE9F04192B00446DE
:10D790008DF807200D4603A80DF1070101221E4652
:10D7A000DDF87080BDF874700DF0E0FE9DF80C306F
:10D7B00013F0300F1BD0032204A800210DF0D4FF7A
:10D7C0009DF81230012262F342038DF812309DF869
:10D7D000103062F3030362F307138DF810309DF8E5
:10D7E000113062F3030362F307138DF811301C222A
:10D7F0000BA800210DF0B8FF9DF80C208DF82C200F
:10D8000012F0300318BF04AB109347B1B8F1000F0A
:10D8100005D0CDF83080ADF83470ADF836709DF895
:10D8200078100023ADF8143061F3C3039DF87C1029
:10D8300061F30413012161F342039DF86C1012F0AF
:10D84000320F61F300038DF8163029D0731E042BBC
:10D8500026D8DFE803F003070E151C009DF81430EE
:10D86000012117E09DF81430012161F30303022127
:10D8700012E09DF81430012161F3030303210BE052
:10D880009DF81430022161F30303012104E09DF8A7
:10D890001430022161F3030361F307138DF8143090
:10D8A00012F00C0F29D0013E042E26D8DFE806F036
:10D8B00003070E151C009DF81530012217E09DF896
:10D8C0001530012262F30303022212E09DF81530A5
:10D8D000012262F3030303220BE09DF815300222BC
:10D8E00062F30303012204E09DF81530022262F383
:10D8F000030362F307138DF8153006A800211422E4
:10D900000DF032FF05AB0793BDF86430ADF8203061
:10D91000BDF86830ADF82430189B0A9320460BA957
:10D9200006AA209B0695FFF7B0FE80B212B0BDE8B4
:10D93000F081F0B587B015461E4601229DF83430BF
:10D940000F4602FA02F163F300018DF8021011464E
:10D9500062F307118DF80010114662F307110446B7
:10D960008DF8011001A8002114220DF0FDFEBDF874
:10D9700030300E9A0197204601A9CDF808D0ADF8B5
:10D980000C60ADF810300595FFF781FE80B207B04E
:10D99000F0BD93DF704794DF704703680BB1084612
:10D9A0001847704703680BB108461847704738B5E9
:10D9B00002680B689A4205460C4628D103795BB988
:10D9C0000B7923BBC28ACB8A9A4220D1227E2B7E3E
:10D9D00053405A060DD01AE0012B18D10B79012BB8
:10D9E00015D10530053110220DF08EFD0028EDD047
:10D9F0000DE06A8B638B9A4209D1EA69E3699A4226
:10DA000005D1208C2B8C1B1A5842584138BD002060
:10DA100038BD70B505460E46002428193146FFF77B
:10DA2000C6FF10B94C34E42CF7D170BD07B5ADF882
:10DA3000041001A9ADF80620FFF7ABFF10280AD0AB
:10DA400001D868B10BE0112807D043F202039842D5
:10DA500005D1042004E0032002E0052000E00B20B3
:10DA600003B05DF804FB07B5ADF8041001A9ADF8EB
:10DA70000620FFF790FF10280DD004D880B10828A9
:10DA80000DD106200CE0112807D043F20203984282
:10DA900005D1042004E0032002E0052000E00B2073
:10DAA00003B05DF804FB000070B50446002529466C
:10DAB0000C2640F8045BFFF7ABFA29463246257680
:10DAC0006583A583E583258404F124000DF04CFED5
:10DAD000064B2363656304F13800294632460DF096
:10DAE00043FE034BA5646364204670BD9BD90100CF
:10DAF000A5D9010010B50446FFF7D6FF04F14C008C
:10DB0000FFF7D2FF04F19800FFF7CEFF204610BDCB
:10DB1000F8B51E460B6803600B7903710D46CB8A7E
:10DB2000C382044617460531102205300DF01EFD54
:10DB30002B7E23766B8B6383AB8BA383EB8BE3838F
:10DB40002B8C238497E8070004F1240383E8070063
:10DB50000025FB682363656396E8070004F138033A
:10DB600083E80700F3686364A5642046F8BD70B5D8
:10DB700005468AB0038CADF810300E46137855F880
:10DB8000241B0190044603918DF81230511C538AD6
:10DB9000ADF8243010220DF113000DF0E7FC03ABBB
:10DBA0000293ADF82660236B284601A998470AB076
:10DBB00070BD07B5436C00908DF80410383069468D
:10DBC000984703B05DF804FB2DE9F041A6B00B685F
:10DBD00000930C460B798DF804300531B1F8113003
:10DBE000ADF8163090460DF1050010220DF0BEFC88
:10DBF000237E8DF8183004F12406638BADF81A30BB
:10DC000096E80700A38BADF81C30E38BADF81E300F
:10DC1000238CADF8203004F1380509AB83E8070008
:10DC200095E80700236B0C930EAB83E807000027F1
:10DC3000636C119313A80D971297FFF735FF13AB81
:10DC400022460DF16C0E1F4603CF774510605160E0
:10DC50003B4602F10802F6D13B8813801CAB93E8E7
:10DC600007001F9B86E80700236321AB93E80700AA
:10DC70000026249B666385E807006364A664684603
:10DC80004146FFF796FF26B0BDE8F08130B595B06C
:10DC9000044601A8FFF708FF204601A9FFF787FE09
:10DCA0000546B0B1236B0D9A9A4211D10AA804F12E
:10DCB00024010C220DF028FC50B9636C129A9A4290
:10DCC00006D10FA804F138010C220DF01DFC00B1A3
:10DCD0000025284615B030BDF8B506460F4600258C
:10DCE000741920463946FFF762FE28B12046FFF737
:10DCF000CDFF08B92046F8BD4C35E42DF0D1002009
:10DD0000F8BD10B50446FFF7E7FF014628B12046ED
:10DD10000022BDE81040FFF757BF10BD70B50E469A
:10DD2000044600F1E405238CB34205D12046FFF7F9
:10DD3000ADFF08B9204670BD4C34AC42F3D1002091
:10DD400070BD08B5FFF7EAFF003018BF012008BD1D
:10DD500038B505461446FFF7E1FF014628B12846CD
:10DD60002246BDE83840FFF72FBF38BD2DE9F0430C
:10DD700087B005460E461746FFF7D0FF0446002839
:10DD800037D04FF0000839881FFA88F38B424FF0E4
:10DD9000060218D202FB037208F101089379012BE5
:10DDA0000BD1B2F80290918801A8FFF731F9204613
:10DDB000494601AAFFF7DBFEE5E7518830460A46EF
:10DDC000FFF751FE0FE0013902FB01725188E28B2F
:10DDD000013189B2914203D928462146002206E04A
:10DDE0003046FFF723FE024618B128462146FFF7CA
:10DDF000EBFE07B0BDE8F0832DE9F04387B00446A1
:10DE00000D461746FFF78AFF0646002854D04FF00C
:10DE100000093A881FFA89F8904536D2BB78012B61
:10DE200007D1122303FB087301A8D988FFF7F0F884
:10DE30001FE0002301AA1A4401330021102B517066
:10DE4000F8D101238DF80430122303FB08739A1DC7
:10DE50000DF10501163352F8040B41F8040B9A42F8
:10DE6000F9D19DF812209DF8113043EA0223ADF854
:10DE70001630122303FB08783046B8F8041001AAC4
:10DE8000FFF775FE09F10109C3E7013A122303FB0D
:10DE900002729188F28B013189B2914203D92046F6
:10DEA0003146002206E02846FFF7C0FD024618B1C1
:10DEB00020463146FFF788FE07B0BDE8F08370B515
:10DEC0000646002574192046FFF7E0FE18B94C35C8
:10DED000E42DF7D170BD204670BD2DE9F0474D8B84
:10DEE000B1F81EA0B1F820900235ADB2AA4594B0A9
:10DEF00004460E4690461F4609D214A9002438460F
:10DF0000029441F84C6DDB689847204639E0494659
:10DF1000FFF717FF08B1052033E02046FFF7CFFFDA
:10DF200004460028F7D0484629465246FFF77EFDB2
:10DF300038BB314642463B4601A8FFF7E9FD09AE32
:10DF400001AB22461D4603CDB542106051602B4601
:10DF500002F10802F6D12B8813800AAA07CA04F13D
:10DF6000240383E807000D9B2363002363630FAA48
:10DF700007CA04F1380585E80700129A6264A364B1
:10DF8000184614B0BDE8F0870284BDF80020428333
:10DF9000BDF804208283027E016063F30002C3F3B4
:10DFA000400161F34102C3F3800161F38202C3F3D4
:10DFB000C00161F3C302C3F3001161F30412C3F3A0
:10DFC000401161F34512C3F3801363F386120276A6
:10DFD0007047F0B587B002849DF830500160002290
:10DFE00006468DF8042001A9114401320020102AB0
:10DFF0004870F8D101ACADF816300FCC371D0FC703
:10E0000023683B60BDF834307383BDF83830B38388
:10E01000337EC5F3400265F3000362F34103C5F3A9
:10E02000800262F38203C5F3C00262F3C303C5F347
:10E03000001262F30413C5F3401262F34513C5F3F3
:10E04000801565F38613337607B0F0BD70DF704737
:10E0500071DF704772DF704773DF704774DF70479E
:10E0600075DF704776DF704777DF704778DF70477E
:10E0700079DF70477ADF70477BDF70477CDF70475E
:10E080007DDF70478ADF70478BDF70478CDF70471A
:10E0900014207047642070474FF42050704708B533
:10E0A000FFF7F2FF002814BF0520002008BD10B5BF
:10E0B0000446FFF7D3FF30B994F8583060F30003FB
:10E0C00084F8583010BD032010BD3B2A084608B51F
:10E0D0000CBF3B211321FFF7C5FF002814BF03200D
:10E0E000002008BD10B50A4601680C6AB0F81C1182
:10E0F0002346BDE81040184708B50846FFF7BCFFA7
:10E10000002814BF0320002008BD08B50846FFF70B
:10E11000B1FF002814BF0320002008BD08B5084641
:10E120001146FFF79DFF002814BF0320002008BD03
:10E1300008B508461146FFF7A3FF002814BF0320C7
:10E14000002008BD08B50846FFF790FF002814BF5F
:10E150000320002008BD08B50846FFF789FF002806
:10E1600014BF0320002008BD08B50846FFF77CFF58
:10E1700018B111280CBF0520032008BD024B0B600D
:10E1800008231360704700BF7C59030008207047C4
:10E1900080F8B8100020704780F8B9100020704750
:10E1A0000220704790F8B800704790F8B9007047A7
:10E1B0000020704703680BB1084618477047036892
:10E1C0000BB10846184770470346826F93F8F31067
:10E1D0006C301047034610B107C983E80700704749
:10E1E000704742680368806812F0010F4FEA6202CC
:10E1F00018BF8158104418BFCB581847012913B5D0
:10E200000C4607D811460DF1010006220DF0AEF9BB
:10E21000002005E08B1E012B01D9032007E001201F
:10E2200002A901F8084DFFF711FF0028F5D102B04F
:10E2300010BD37B568460D461446FFF709FF60B9B3
:10E2400015B19DF800302B7020463CB10DF1010155
:10E2500006220DF08BF9002000E0032003B030BD52
:10E2600070B5002306460D4696F8BA20D8B2824211
:10E270000ED95C1C6B7983420AD92B68C0EBC000B5
:10E280003118BB31184407220DF070F92346EBE733
:10E290002871002070BD37B59DF80430012262F36B
:10E2A000030302AC62F30713084604F8043D0D466D
:10E2B0000EF034F8294682B22046FFF7DFFE002830
:10E2C00014BF0320002003B030BD000008B50121B9
:10E2D000044A022005F05CFA002814BF0B2000203D
:10E2E00008BD00BFA1E7010070B503680E79DB6CC3
:10E2F00004460D46984786422CD82A790023D9B285
:10E30000914209D2C3EBC3012868415C032903F1A0
:10E310000103F4D1042070BD002184F8BA102B79D8
:10E320004E1CC9B28B4213D994F8BA002B68C0EBCB
:10E33000C0002044C1EBC1011944BB3007220DF0DD
:10E3400015F994F8BA30013384F8BA303146E6E76B
:10E35000002070BD032070BD10B50C46C97F1F2979
:10E360000ED809B9032010BD2046D37FFFF772FEF7
:10E370000028F7D1208CFFF779FE0028F2D110BDDC
:10E38000012010BD70B5044686B0D4F8B030C4F892
:10E39000B430D4F8B40040B1C36821469847D4F8EB
:10E3A000B430002BF1D01B69F1E7D4F8B0502DB197
:10E3B0002E69284602F092FE3546F8E794F8583068
:10E3C000C4F8B05065F3000365F3410384F8583096
:10E3D00029461F2284F8565084F85C5004F10A0044
:10E3E0000DF0C2F984F8295004F1340029461F22A7
:10E3F0000DF0BAF9606E84F8535020B1056902F04F
:10E400006DFE2846F9E76066D4F8980020B10569EA
:10E4100002F064FE2846F9E7D4F8A450C4F8980046
:10E420002DB12E69284602F059FE3546F8E701AEB7
:10E430002946C4F8A45030460C220DF095F996E810
:10E44000070004F16C0383E807000B4BA367294620
:10E45000E56730460C220DF087F996E8070004F1D5
:10E46000800383E80700054BC4F88C302846C4F8C5
:10E47000905006B070BD00BFBFE10100B5E10100E2
:10E4800010B50446FFF77EFF50B94FF6FF7384F8CE
:10E49000BA00A4F81C3184F8B80084F8B90010BDA3
:10E4A000062010BDA0F81C117047B0F81C01704781
:10E4B0002DE9F04F06468FB000200C4602F098F888
:10E4C0000368DB6A9847FEF7F1FF70B100238DF80F
:10E4D0000C3001AB029308238DF8143002A806AB70
:10E4E0000493FFF7AFF820B156E08DF80C008DF8DB
:10E4F000140000252573257196F8BA30EFB2BB429F
:10E5000049D94FEAC70BC7EB0B03F21892F8BB20AF
:10E51000022A35D14FF000099DF814305FFA89F8CE
:10E52000434536D9049BC7EB0B003044BB3053F84E
:10E530002810FFF79BF84FEA880A09F10109002823
:10E54000EAD0049B227B53F80A10A36843F82210F8
:10E55000237B013323739DF814305A1E90451FBF4F
:10E5600003F1804303F1FF33049A52F8233018BFBC
:10E5700042F80A309DF81430013B8DF8143008E061
:10E58000217922683344BB3342F8213023790133A7
:10E5900023710135B0E700200FB0BDE8F08F30B532
:10E5A0000546087801289BB00C4614D003284B88F8
:10E5B00006D1A03B9BB243F6607293423CD805E083
:10E5C000203B9BB243F6E072934206D8A388B3F592
:10E5D000804F02D203E002202EE003202CE00AABA1
:10E5E000009312AB029300238DF804308DF80C30A9
:10E5F00095F8B83023B128466946FFF759FFD8B9D6
:10E6000004A8002118220DF0AFF823788DF81030FF
:10E6100095F8B8308DF818306388ADF8203004A82C
:10E62000A388CDF81CD0ADF82230FFF715FD18B146
:10E6300004280CBF072003201BB030BD30B599B0B3
:10E6400008AB009310AB029300238DF804308DF8D3
:10E650000C3090F8B93005460C46EBB99DF81030F7
:10E66000A279CDF814D062F3000395F8B92062F3D3
:10E6700041038DF810302388ADF818306388ADF869
:10E680001A3004A8A388ADF81C30FFF7FBFC002863
:10E6900014BF0320002004E06946FFF709FF0028AB
:10E6A000DCD019B030BD70B59CB004461D468DF865
:10E6B00000200DF101000622209E0CF057FF55B1FD
:10E6C0002B88ADF808306B88ADF80A30AB88ADF810
:10E6D0000C30EB8809E03223ADF808306423ADF844
:10E6E0000A30ADF80C504FF41673ADF80E300CAB89
:10E6F000049314AB069300238DF814308DF81C306E
:10E7000094F8B93004ADABB99DF8203094F8B92035
:10E71000099562F34103DBB29EB1B27962F3000363
:10E720008DF820303388ADF828307388ADF82A3062
:10E73000B38813E020462946FFF7BAFE0028E3D04D
:10E740002CE094F8322062F300038DF82030A38D82
:10E75000ADF82830E38DADF82A30238EADF82C309B
:10E76000684608A902AAFFF791FCB8B108280ED0A4
:10E7700003D804280DD0072806E011280BD043F257
:10E780000223984209D0102807D00B2006E006206B
:10E7900004E0072002E0052000E004201CB070BD6A
:10E7A000F0B5054685B0002001F022FF03689B69A3
:10E7B0009847134B80F8F350009300F586750023BB
:10E7C0006E460193B5420F4B0290044600F1F407E8
:10E7D00003930CD02846FDF7E8FD45B1039B1BB120
:10E7E0005B68284669469847039BC4F81831384649
:10E7F0000021FEF79BF83046FDF7D7FD05B0F0BDD0
:10E80000C9E10100705903000220704700207047E1
:10E81000704790DF704796DF704798DF704790F839
:10E820009300003018BF0120704708B50846114614
:10E830001A46FFF7F0FF18B111280CBF052006207B
:10E8400008BD1FB58DF80410ADF806300021069BF9
:10E850008DF80510ADF80810ADF80A301046079B8A
:10E86000039301A9FFF7D9FF48B1112806D043F25D
:10E87000040398420CBF0720062000E0052005B0E5
:10E880005DF804FB03680BB108461847704703683E
:10E890000BB108461847704703680BB10846184784
:10E8A000704700F5F670FFF718BB00F5F670FFF73C
:10E8B000B0B800F5F670FFF724BA70B505460C46FF
:10E8C00007C986B0E66801AB83E8070005F5DA748E
:10E8D000002384E80700C5F8C061C5F8C43106B05C
:10E8E00070BD2DE9F047154600F13407044688460F
:10E8F00007CA8AB08DE8070093E80700D5F80CA096
:10E90000D3F80C9005AD85E80700384601F085FA8C
:10E91000864600284AD19DE8070004F1500383E8A9
:10E92000070095E8070004F17803C4F85CA0C4F878
:10E9300060E083E80700129BC4F88490C4F888E084
:10E9400004F13A0203F1140153F8040B42F8040BEA
:10E950008B42F9D1139B04F1640203F1100618688D
:10E960005968154603C50833B3422A46F7D11868DB
:10E97000286000220121A4F8388084F8912084F8CE
:10E98000902084F893104046FFF743FF044678B187
:10E99000384601F07AFD112C06D043F202039C4266
:10E9A00007D0072C02D104E0052003E0062001E097
:10E9B00000E004200AB0BDE8F08700002DE9F04730
:10E9C0000646894615469A46036807CA92B0D3F8A8
:10E9D0000080EB680693002503AC84E807000DAFC8
:10E9E00029460C2208A807950CF0BEFE084B0B9395
:10E9F000294638460C95FEF70BFBCDF800A0019791
:10EA000030464946224608ABC04712B0BDE8F08701
:10EA10008FE801002DE9F04186B0002101AC0546E8
:10EA200081802046FEF7F4FA2646AB1D05AF32463C
:10EA300003CABA4218605960164603F10803F6D1BA
:10EA400010681860002120460C220CF08DFE94E81E
:10EA5000070005F11C0383E807004FF00008114B85
:10EA6000AB624146C5F82C8020462746FEF7D0FA17
:10EA70000FCF05F130060FC63B6833604146204694
:10EA80000C220CF071FE94E8070005F1440383E8C2
:10EA90000700054B2B654046C5F8548006B0BDE81D
:10EAA000F08100BF85E801008FE8010070B586B0F5
:10EAB0000446FFF7AFFF054678BB4FF0FF3301AECA
:10EAC00084F85C0084F85D0084F85E0084F85F00E0
:10EAD000C4F85001C4F85431C4F85831C4F85C315A
:10EAE000C4F86031C4F86801C4F86C31C4F87031FE
:10EAF000C4F87431C4F8783129460C2230460CF041
:10EB000033FE96E8070004F5C07383E80700054B61
:10EB1000C4F88C31C4F8905100E00625284606B0B0
:10EB200070BD00BF99E8010070B50446E36A236335
:10EB3000206B38B1C36821469847236B002BF5D072
:10EB40001B69F4E7E06A20B1056902F0C7FA2846BC
:10EB5000F9E7E062A06820B1056902F0BFFA284633
:10EB6000F9E7A060606920B1056902F0B7FA2846AC
:10EB7000F9E7256A60612DB12E69284602F0AEFAE8
:10EB80003546F8E7256204F13400FFF78FFF284689
:10EB900070BD000070B58AB024220446002101A88F
:10EBA0000CF0E2FD0AAE02A80021FEF731FA0023C4
:10EBB0008DF81C30ADF81E30ADF82030ADF82230A5
:10EBC00026F8043D04F5CA7201AB1D4603CDB542DB
:10EBD000106051602B4602F10802F6D12B88138099
:10EBE000236820465B689847002384F85F3050B163
:10EBF000D4F880313BB1054B2BB1D4F88C31A188CE
:10EC000004F5C07098470AB070BD00BF51CB010039
:10EC100008B53430FFF7BEFF08BDA0DF7047A4DFA2
:10EC20007047A5DF7047A6DF7047A8DF7047A9DFF0
:10EC3000704767DF70470020704773B5154602685C
:10EC400000930E4694684FF6FF7132462B46A0475C
:10EC500002B070BD13B5049C019300200090208881
:10EC6000ADF80000084611466A46FFF7DAFF18B90A
:10EC7000BDF80030238000E0032002B010BD73B562
:10EC80001546026800939DF8183001930E461469EA
:10EC90004FF6FF7132462B46A04702B070BD2DE9FA
:10ECA000F041044600200F46164601F0A1FC03681F
:10ECB0009B69984723689D69FFF7F7FB3A46014631
:10ECC00033462046AC46BDE8F041604770B586B09B
:10ECD0000C4615469DF82C10019300220092BDF8B9
:10ECE0002820ADF8002009B9427910E020462946D5
:10ECF0006A46FFF794FF002814BF032000206AE053
:10ED000000EBC106B6F8C460AE4203D001319142B7
:10ED1000F6D33FE000EB8100426F92F8202012F022
:10ED2000300F37D005930AAB12F0100F04934FF653
:10ED3000FF7314BF0122022200209C42ADF808504C
:10ED40008DF80A20ADF80C0007D101F051FC0368E2
:10ED50009B699847FFF7A9FB0446204602A9FFF7E5
:10ED600062FF80B2B8B3112812D001DC082806E097
:10ED700043F2030398420BD043F20143984201D17E
:10ED8000062028E0204629466A46FFF748FF40B99A
:10ED9000052020E0204629466A46FFF740FF0C2860
:10EDA00001D1032017E006D80528FAD0072811D092
:10EDB00088B10B200FE010280CD003D80F28F8D111
:10EDC000082008E043F202039842EAD0B0F5505F11
:10EDD000E7D0EEE7042006B070BD7FB5D58B427951
:10EDE0001C460023934217D200EBC306B6F8C4605A
:10EDF000AE420FD100EBC3030DF10E05B3F8C820EE
:10EE00000223ADF80E30036800959D6803ABA84758
:10EE100020B112E00133E5E704200EE0BDF80E302A
:10EE2000022B07D1BDF80C3013F0030304D00123EB
:10EE3000237002E0062000E0184604B070BD2DE902
:10EE4000F04F054695B008468946FEF743FC0DF1A4
:10EE500050080DF1360248F8180D01204146FFF721
:10EE6000DCFE08B10320C8E0BDF83630A9F81C303C
:10EE7000074699F81420FBB29A4249D96A79132AB5
:10EE800001D90720B9E0D9F8182052F82340636966
:10EE9000002B42D1638B002B3FD194F82030022B02
:10EEA0003BD133E0616994F8202094F8213000913F
:10EEB000618B0191218B0291217F0391CDF810A0EC
:10EEC000CDF814B094F82910069194F82A100791FF
:10EED000697905EBC101C431089100204146FEF774
:10EEE00053FC0028BED16B7905EB830205EBC3030D
:10EEF0005467B3F8C430E3836B7901336B71824696
:10EF000094F828205FFA8AF39A4230D80137B0E7A4
:10EF10002B7901332B7100206FE02046FEF7DAFBDE
:10EF200000260E90B346B24694F82820F3B29A42D7
:10EF3000B8D9626A52F8232000238DF83C300FA91B
:10EF4000194401330020102B4870F8D142F6011308
:10EF500010460FA90B92ADF84E30FEF767F80B9AEA
:10EF600018B1D2F814A0B2F81AB00136DCE795F85F
:10EF70008421072A85D8626A52F8236000238DF81D
:10EF80003C300FAA1A4401330021102B5170F8D1E4
:10EF900042F6011330460FA9ADF84E30FEF746F8A1
:10EFA000834638BB3046FEF795FB328B738B00925D
:10EFB000327F019295F884210E9005EB420202F512
:10EFC000C3720292584641467269FEF7B2FC0028AD
:10EFD0007FF448AF95F8843105EB830205EB4303DA
:10EFE000C2F86461B3F88631F38395F88431013354
:10EFF00085F884310AF1010A82E715B0BDE8F08F87
:10F00000F0B5044687B0236B6363606B38B1C368A7
:10F0100021469847636B002BF5D01B69F4E7206B02
:10F0200020B1056902F05AF82846F9E720632071FB
:10F030006071E06820B1056902F050F82846F9E7F0
:10F04000E060A06920B1056902F048F82846F9E7B8
:10F05000656AA0612DB12E69284602F03FF8354659
:10F06000F8E701AE2946656230460C220CF07CFBC5
:10F0700096E8070004F13803104F83E8070029469B
:10F080006764A56430460C220CF06EFB96E807001E
:10F0900004F14C0383E807002946A765E56530467F
:10F0A0000C220CF061FB96E8070004F1600383E892
:10F0B00007002846E766256707B0F0BD99E801001C
:10F0C00010B50022417900F1700310468A4207D240
:10F0D00053F8044F248BA04238BF20460132F5E795
:10F0E00010BDF8B5D0F8A03106460F4643B1D0F8B0
:10F0F000AC3123B1D0F8B831CBB9022300E0012301
:10F100000C2202FB03F404F5CC7035183046FFF7EF
:10F11000D7FF0BF00DFF3319C3F8A0010020A3F8AF
:10F120009C01A3F89E01A3F898712846F8BD002021
:10F13000F8BD10B502460023D2F8A0414CB1B2F898
:10F1400098418C4205D10C2202FB030000F5CC70E3
:10F1500010BD0133032B02F10C02EDD1002010BDD4
:10F1600010B5FFF7E6FF044630B180680BF0E8FE0B
:10F170000023A360012010BD10BD38B5044600F186
:10F180002405D4F8A00120B10BF0DAFE0023C4F866
:10F19000A0310C34AC42F4D138BD38B50546FFF788
:10F1A0002FFF0446E8B9214605F1740050220CF007
:10F1B000DBFA214605F5B27020220CF0D5FA214683
:10F1C00005F1C40008220CF0CFFA05F5C370214602
:10F1D00010220CF0C9FA85F884412846FFF7CDFFCC
:10F1E00000E00624204638BD0B680BB9036002E03E
:10F1F000024B036000234360704700BF51CB010006
:10F2000038B504460D466368A360A06838B1C3688A
:10F2100029469847A368002BF5D01B69F4E738BD51
:10F22000C368184730B5042987B015460DD00529A5
:10F2300015D0032922D100F13804214604A8FFF794
:10F24000D3FF049BB3B9059B12E000F14C042146A7
:10F250006846FFF7C9FF009B63B9019B08E000F116
:10F260006004214602A8FFF7BFFF029B13B9039B6E
:10F27000DB0703D520462946FFF7D2FF07B030BD94
:10F280002DE9F0430B88502B8DB005460C4617D066
:10F290000DD8012B2DD0022B40F0DC818C8821462B
:10F2A000FFF71FFF20460021FFF7C3FCD2E1522BDE
:10F2B0002ED034D3532B40F0CD81CF88052139E0B7
:10F2C000CF8842790023934211D205EBC301B1F8F4
:10F2D000C810B94209D105EB83035E6F96F8202070
:10F2E00012F0300F40F0A08101E00133EBE7022182
:10F2F00020E00C7AEB682B612869002800F0AA81D5
:10F30000C368214698472B69002BF3D01B69F2E7AD
:10F31000888800210A460B46FFF789FC9AE18B7921
:10F32000012B05D0022B40F095810F89072101E0C8
:10F330000F8906216B7900269E4222D205EBC60278
:10F34000B2F8C420BA421AD10629B04600F02B8187
:10F35000072920D0022940F06281A388ADF820302F
:10F36000237B8DF82430E389ADF82630123434F84D
:10F37000023CADF82270ADF828300B940DE1013657
:10F38000DAE70729A37B40F06581053B012B00F2FA
:10F3900061814FF0FF382846FFF792FEA37BA688D5
:10F3A000052B45D0062B4AD0042B40F0A280B4F8A0
:10F3B0001080B4F8129008EB0903834211DC284650
:10F3C0003146FFF7B6FE074600283ED0C38823B972
:10F3D00022894280A0F804800AE0818819444145CE
:10F3E00002D030469D4963E02189428891425DD137
:10F3F000B86804F11405184429464A460CF0B6F8DA
:10F40000B4F81280FB884344FB8008A80021102236
:10F410000CF0AAF902238DF8203001238DF8263054
:10F42000238AADF82830ADF82A800B953046F2E0FB
:10F4300031462846FFF794FE30468949ECE02846DD
:10F440003146FFF776FE074610B930468549E3E0BE
:10F4500004A8002110220CF087F9ADF810607B8819
:10F46000ADF81230BB88ADF8143005EB8808FB8886
:10F47000D8F87400ADF81630BB68069390F82A30BF
:10F4800033B1C36C04A940309847BDF81C306BB948
:10F49000FB88ADF80030BB88ADF802303046BB6861
:10F4A000798801936A46FFF7BAFB20B16D4930466F
:10F4B000FFF7BBFB18E06A493046FFF7B6FBADF833
:10F4C00020607B88ADF82230A37B8DF82430BB8888
:10F4D000ADF82630FB88ADF8283005F11400BB6884
:10F4E0000B9308A9FFF78CFE28463146FFF738FE3C
:10F4F000B0E00021102268460CF036F9238AADF8FE
:10F500000060ADF8043004F11406638AADF80630EB
:10F5100004A80021102205EB8808ADF802700296BD
:10F520000CF022F902238DF81030D8F87400012372
:10F530008DF8163090F82A302BB1C36C69464030F4
:10F540009847BDF80C30BDF80420ADF81820BDF880
:10F550000620ADF81A20029AADF8143007922BB1AC
:10F560009DF816306FF300038DF81630A08804A9BB
:10F57000FFF75BFBBDF81430002B6BD1A388ADF80F
:10F580002030A37B8DF82430238AADF82630638A9F
:10F59000ADF82270ADF828300B9605F1140008A9DB
:10F5A000FFF72EFE56E00021102204A80CF0DCF834
:10F5B00005EB8605A388ADF8103008A8E389ADF8FF
:10F5C000143000211022ADF812700CF0CDF8012398
:10F5D000686F8DF8203090F829302BB1836B04A927
:10F5E0002C309847BDF81C30ADF82430BDF81C30E5
:10F5F00083B9069A72B19DF826300B9243F001034D
:10F600008DF82630BDF81430ADF82830BDF816302E
:10F61000ADF82A30A08808A9FFF707FB1AE02846B2
:10F620003A46FFF7FFFD15E0E17CA37C900643EA34
:10F63000012301D59F0707D4D40607D513F0010F86
:10F640000CBF0421032102E0032100E0042128462D
:10F65000F28BE6E70DB0BDE8F08300BF585A030017
:10F66000685A0300785A030090DF704792DF7047B2
:10F6700095DF704738B502680B689A4205460C461C
:10F6800001D0002017E004300431FDF7CFFC002842
:10F69000F7D0227E2B7E53405A06F2D16A8B638BC1
:10F6A0009A42EED1EA69E3699A42EAD1208C2B8C26
:10F6B0001B1A5842584180F0010038BD38B5044645
:10F6C000002540F8045B2946FDF7A2FC25766583FA
:10F6D000A583E5832584204638BD016810B503461F
:10F6E00071B11A464C1E406842F8044B03EB81038B
:10F6F0009A4204D052F8041F42F8041CF8E710BDE7
:10F700004FF0FF3010BD016810B5034671B11A46C5
:10F710004C1E406842F8044B03EB81039A4204D02C
:10F7200052F8041F42F8041CF8E710BD4FF0FF30F8
:10F7300010BD000013B5044623686269D3B10323EA
:10F74000114982F85F30636808680090182101FB56
:10F75000032370339988ADF80410DB889088ADF8E6
:10F760000630694601AAFFF783FF50B12046FFF734
:10F77000B4FFE1E792F85F30032B04BF012382F866
:10F780005F3002B010BD00BFB45A030000232DE962
:10F79000F04380F85C300A78C0F85031042A4FF00A
:10F7A000FF3388BF042287B0044680F85D20C0F88C
:10F7B0005431C0F85831C0F85C31C0F860310D46A2
:10F7C0008046002794F85D309F4232D22B797BB976
:10F7D000D4F850315A1C04EB8303C4F85021C3F809
:10F7E0005471EA882B89A8F87630A8F874201BE0B9
:10F7F00001A86988FDF70CFCB5F806C0B5F808E06B
:10F8000001AB08F160020DF114091E4603CE4E450E
:10F8100010605160334602F10802F6D13068106082
:10F82000A8F874C0A8F876E00137083508F1180880
:10F83000C8E7D4F850311BB104F5A870FFF77AFF80
:10F8400007B0BDE8F083000013B504462268636981
:10F85000D2B10422114983F85F20626808680090E1
:10F86000242101FB02329888B2F8DA20ADF8042096
:10F870000132ADF80620694601AAFFF7F9FE50B142
:10F880002046FFF740FFE1E793F85F20042A04BF1A
:10F89000022283F85F2002B010BD00BFB85A0300F7
:10F8A0002DE9FF410B78042B88BF042380F85E30DC
:10F8B00000254FF0FF3304468846C0F86851C0F871
:10F8C0006C31C0F87031C0F87431C0F878310E4630
:10F8D00000F1C00794F85E309D422BD23379A288A4
:10F8E000ABB9D4F86831591C04EB8303C4F8681130
:10F8F0003189C3F86C5100910A237189019103FB8E
:10F9000005833846A16D9B79FEF73EFB0EE00A2188
:10F9100001FB0581738889798DF800103189019187
:10F92000718902913846A16DFEF753FB01350A3605
:10F930002437CFE7D4F8683133B104F5B47004B09C
:10F94000BDE8F041FFF780BF04B0BDE8F0810000E2
:10F95000F0B590F85F30032B85B0044634D10A68C7
:10F96000364B9A4200F5A8772AD18968102268465A
:10F970000BF0FCFD3846FFF7B0FE182303FB0043F5
:10F98000012183F8601002466D4661330DF1100EBF
:10F990002E4603CE764518605960354603F10803BC
:10F9A000F6D1182303FB0244384694F86E2094F8ED
:10F9B0006D3043EA0223A4F87230FFF7BBFE3AE051
:10F9C0003846FFF78AFE36E0042B34D10A681C4B18
:10F9D0009A4200F5B4772BD189681022033168462A
:10F9E0000BF0C4FD3846FFF78EFE242303FB0043D3
:10F9F000012183F8C41002466D46C5330DF1100E87
:10FA00002E4603CE764518605960354603F108034B
:10FA1000F6D1242303FB0244384694F8D22094F80C
:10FA2000D13043EA0223A4F8D630FFF70DFF02E0FD
:10FA30003846FFF768FE05B0F0BD00BF01001000BA
:10FA4000010013000B680BB9036002E0024B036076
:10FA500000234360704700BF51CB0100C3681847C3
:10FA600037B505468180002085F85E00022085F8C4
:10FA70005F00084601A9ADF80420ADF80630FFF795
:10FA8000F5FD102811D003D868B108280FD008E080
:10FA9000112804D043F20203984206D001E0052465
:10FAA00006E00B2404E0044606E0042400E00624FB
:10FAB00028462146FDF7D4FA204603B030BD0000A9
:10FAC00030B5044689B094F85F30012B6ED194F8BC
:10FAD0005C3094F85D2093424CD20021A51D03A810
:10FAE000FDF796FA284603A9FDF7A0FA48B994F85D
:10FAF0005C30182101FB034128466031FDF796FA7E
:10FB000028B3E369ABB12A4B9BB1002103A8FDF7F1
:10FB10007FFA04F1300003A9FDF788FA48B194F8A0
:10FB20005C30182101FB034104F11C00A36A603121
:10FB3000984794F85F30012B09D101A804F14401E2
:10FB4000FFF780FF019B43B9029BDB0705D494F8C4
:10FB50005C30013384F85C30B5E794F85C30A18800
:10FB6000182202FB034370339A88DB882046FFF794
:10FB700077FFA8E7D2B1CBB11822013B02FB0343C8
:10FB80000022B3F8761084F85D204FF6FF73994297
:10FB900084F85C2003D12046FEF7FCFF06E001312B
:10FBA000A08889B2FFF760FD0028F4D109B030BD0C
:10FBB00051CB01002DE9F04390F85F30022B93B058
:10FBC000044640F0CB80002100F5CA75242209A824
:10FBD0000BF0CAFD09A8FFF771FD284609A9FFF738
:10FBE00049FD98B394F85E3083B3B4F8DA30013B42
:10FBF000A4F8B231002104F1300704A8FDF708FA97
:10FC0000384604A9FDF712FA064690B9384604F5BD
:10FC1000CC71FDF70BFAC8B1314609A8FDF7F8F928
:10FC2000A01D09A9FDF702FA80F0010010F0FF0FF6
:10FC30000CD004F1440668463146FFF703FF009BF1
:10FC4000002B40F08180019BDA077DD4002694F8D8
:10FC50005E20F3B293424BD294F85F1002297DD11B
:10FC6000511E8B424FF024000DD100FB0343C033E3
:10FC700003F1200153F8040B45F8040B8B42F9D132
:10FC80001B882B8034E000FB034703FB0003234465
:10FC9000C037B3F8DA30013BFB83002104F13009AF
:10FCA00004A8FDF7B5F9484604A9FDF7BFF9804659
:10FCB00088B94846391DFDF7B9F9B8B1414609A8D8
:10FCC000FDF7A6F9A01D09A9FDF7B0F980F0010024
:10FCD00010F0FF0F0AD004F1440802A84146FFF7D4
:10FCE000B1FE029BABBB039BDB0732D40136AEE710
:10FCF00094F85F30022B31D142B12423013A03FB47
:10FD00000242B2F8DC3001339BB201E04FF6FF73E0
:10FD100094F85C20182101FB02420021B2F8762001
:10FD200084F85E1093420BD2A088ADF8243009A964
:10FD3000ADF82620FFF79AFC80B120460B2100E0A9
:10FD40002046FDF78DF909E030462946FFF786FE8B
:10FD50007CE740463946FFF781FEC7E713B0BDE8B0
:10FD6000F083022070470220704700207047002077
:10FD700070474FF6FF7070470220704702207047AF
:10FD8000022070470220704702207047022070470F
:10FD900002207047022070470220704702207047FF
:10FDA0000220704702207047022070470023136032
:10FDB00070470020704702207047022070470220E1
:10FDC00070470220704702207047002070470020D3
:10FDD0007047002070470220704702207047416042
:10FDE000704781607047C160704701617047416131
:10FDF000704702207047022070470220704702209F
:10FE0000704702207047022070470220704790DF41
:10FE1000704766DF704748DF704790F85F0000303A
:10FE200018BF01207047007970470C3070470C30C4
:10FE3000704708B503689B6B9847BDE80840FFF71B
:10FE4000EABF0000034B1A781AB100221A7008F0BA
:10FE5000D1BA7047C439002070B594B008238DF82A
:10FE6000043004AA8DF80C3068460CAB0C460092A6
:10FE70000293FDF7E7FB064610B1002323712EE045
:10FE800002469DF80410D3B299420FD9551C6279ED
:10FE90009A42F3D92068C3EBC3021044009A52F887
:10FEA000231007220BF062FB2A46EAE723710023A6
:10FEB0009DF80C10DAB29142217911440ED95D1CE3
:10FEC000637999420ADA23680298C1EBC1011944A7
:10FED00050F82200FDF7CCFB2B46E9E721713046B4
:10FEE00014B070BDFDF732BB08461146FDF76EBB7E
:10FEF00008461146FDF73EBB084611461A46009BD0
:10FF0000FDF7DABA1FB5037963B1164B1A781C46B0
:10FF1000CAB902A8FFF77DFFE0B9BDF80A30592B36
:10FF200018D101E010481BE09DF80830DA1F012AC3
:10FF3000BDF80C2009D800920C480D4A20210BF086
:10FF400093FF0123237009480AE000920748094AF9
:10FF50002021F4E70849054820220CF059FAF2E77D
:10FF600004B010BD603A0020845C0300A03B002078
:10FF70009E5C0300BB5C0300E05C030038B50379C2
:10FF800005464BB308F0C2FA40BBD5F82C0118B9AE
:10FF9000D5F8340150B905E003681B6A984700287A
:10FFA000F6D038BDD5F8300180B905E003689B6A0A
:10FFB00098470028F6D038BD05F10C00FEF760FA2E
:10FFC000044668B9FDF768FB2C7109E00368DB6A39
:10FFD00098470028F0D038BD092038BD052038BD2D
:10FFE000204638BD38B50446E3692362206A38B13B
:10FFF000C36821469847236A002BF5D01B69F4E7B4
:020000040002F8
:10000000E06920B1056901F069F82846F9E7E06187
:100010006060A060E0602061606138BD08B5FFF7F6
:10002000E1FF002814BF0620002008BD38B50446B3
:10003000006820B1056901F051F82846F9E7206011
:1000400038BD000010B5044B044640F8043BFFF7F0
:10005000EDFF204610BD00BFB85B030010B504469D
:10006000FFF7F0FF204601F039F8204610BD38B503
:100070000446006820B1056901F030F82846F9E728
:10008000206038BD10B5044B044640F8043BFFF730
:10009000EEFF204610BD00BFC85B030010B504464C
:1000A000FFF7F0FF204601F019F8204610BD0000D0
:1000B00038B5064B03600446406820B1056901F07D
:1000C0000DF82846F9E7204638BD00BFC85A03009E
:1000D00010B50446FFF7ECFF204600F0FFFF204676
:1000E00010BD000038B5064B03600446406820B1DF
:1000F000056900F0F3FF2846F9E7204638BD00BF48
:10010000D85A030010B50446FFF7ECFF204600F074
:10011000E5FF204610BD000038B5064B03600446DD
:10012000406820B1056900F0D9FF2846F9E720466C
:1001300038BD00BFE85A030010B50446FFF7ECFFD6
:10014000204600F0CBFF204610BD000038B5064B1E
:1001500003600446406820B1056900F0BFFF2846EF
:10016000F9E7204638BD00BFF85A030010B5044631
:10017000FFF7ECFF204600F0B1FF204610BD000065
:1001800038B5064B03600446406820B1056900F0AD
:10019000A5FF2846F9E7204638BD00BFD85B03001D
:1001A00010B50446FFF7ECFF204600F097FF20460D
:1001B00010BD000038B5064B03600446406820B10E
:1001C000056900F08BFF2846F9E7204638BD00BFDF
:1001D000985B030010B50446FFF7ECFF204600F0E3
:1001E0007DFF204610BD000038B5064B0360044675
:1001F000406820B1056900F071FF2846F9E7204604
:1002000038BD00BFA85B030010B50446FFF7ECFF44
:10021000204600F063FF204610BD000038B5064BB5
:1002200003600446406820B1056900F057FF284686
:10023000F9E7204638BD00BF185C030010B504463E
:10024000FFF7ECFF204600F049FF204610BD0000FC
:1002500038B5064B03600446406820B1056900F0DC
:100260003DFF2846F9E7204638BD00BF285C030063
:1002700010B50446FFF7ECFF204600F02FFF2046A4
:1002800010BD0379F7B507460E46154633B1002376
:100290000A24019300938DF8044007E0FCF762FE06
:1002A000044670B901233B71009001903046FCF781
:1002B0008BFC02A941F8080D2846EB6898472046B8
:1002C00000E00C2003B0F0BD2DE9F0411F460368AB
:1002D0005B6804460E46904698470346002849D17D
:1002E00098E8070004F11C0585E80700D8F80C2001
:1002F000A262E36297E8070004F1440585E807007D
:10030000FA686365069B226503F11401A21D53F888
:10031000040B42F8040B8B42F9D1079B04F1300225
:1003200003F1100718685968154603C50833BB4226
:100330002A46F7D11868286000220121A68084F897
:100340005D2084F85C2084F85F103046FFF75FFD85
:10035000054690B1236820469B689847112D06D02A
:1003600043F202039D420AD0072D03D107E0052086
:10037000BDE8F0810620BDE8F081BDE8F0810420F1
:10038000BDE8F08138B5D0F83441054674B9242071
:1003900000F098FE074B8361074B44608460C460A3
:1003A00004614461C4610360C5F83401D5F83401C7
:1003B00038BD00BF985B0300585C030038B5D0F827
:1003C0003441054674B9242000F07CFE074B83615C
:1003D000074B44608460C46004614461C46103608D
:1003E000C5F83401D5F8340138BD00BF985B03006F
:1003F000585C0300114B10B50360114BC360114BE7
:10040000C0F80031044600F58070FCF7C5FA0E4BC9
:10041000E36004F1B800FFF799FE04F1AC00FFF7C8
:100420007BFE04F1A000FFF75DFE04F16C00FFF716
:100430003FFE2046FCF730FC204610BDF05C030078
:1004400090590300B0580300085B030010B5044640
:10045000FFF7D0FF204600F041FE204610BD0346C6
:1004600000F11F01002203F8012B8B42FAD14FF457
:100470000073C2770384704710B5002104461F2221
:100480000BF072F90023E37710BD08B5FEF782FB8D
:1004900008BD00002DE9F3413C4B03603C4BC360B9
:1004A0000025A02300F11607044605718560057438
:1004B000438285823846FFF7D2FF4FF480410A46D7
:1004C0002B4604F14006009504F13800FCF7EDFBE3
:1004D0003046FFF7C4FF94F8643084F8625003F0AC
:1004E000FE0365F3410384F864304FF00C08294B98
:1004F000E3662946424684F86850256704F178008F
:100500000BF032F9244BC4F8843029464246C4F833
:10051000885004F18C000BF027F9204BC4F8983078
:100520001F4BC4F8A0301F4BC4F8AC301E4BC4F8AE
:10053000B8303846C4F89C50C4F8A450C4F8B05041
:10054000C4F8BC50FFF798FF3046FFF795FF174BF4
:10055000E36084F8C45084F8C55084F8C65004F5AC
:100560008070FCF7CBFA124BC4F8003120464FF6EE
:10057000FF73C4F82451A4F82831C4F82C51C4F8EE
:100580003051C4F8345102B0BDE8F081F05C030092
:10059000085B0300C85A0300BFE10100B5E1010098
:1005A000D85A0300E85A0300F85A03009059030090
:1005B000B058030010B50A4C2368DB070ED4204660
:1005C00000F03AFD50B10748FFF764FF204600F005
:1005D0005DFD04480449054A00F01BFD014810BDBB
:1005E0009C3B0020643A0020F5030200F82E002016
:1005F000FFF7E0BFFFF7DEBF38B50C2204460D461B
:1006000000210BF0B1F8002323612560014BE3606A
:10061000204638BD99E8010070B5002504460E4615
:100620008571058329460C221C300BF09DF82C4B5C
:10063000E562A36284F83050A4F84250294604F1E0
:1006400044000C220BF090F8264B2365264B656581
:10065000A66584F85C5084F85D5084F85E5084F898
:100660005F50236004F1600504F1C00628460021B4
:10067000FCF7CEFC0023AB82EB821835B542F5D1F6
:1006800004F5A8762846002124220BF06DF82846B0
:100690002435FFF713F8B542F4D10021C4F8501106
:1006A000C4F85411C4F85811C4F85C11C4F86011AE
:1006B000C4F86811C4F86C11C4F87011C4F874114E
:1006C000C4F87811C4F86441C4F87C4104F5C070E2
:1006D000FFF792FF04F5CA70FEF7F0FF204670BDE9
:1006E00085E801008FE80100385C030070B5D0F8A0
:1006F00030510646E5B94FF4347000F0E3FC0E4B80
:1007000043600E4B03610E4BC3610E4B8362044684
:100710000D4B856045610562C562214640F8343B5A
:10072000FFF77AFF04F5F670FDF7E4F9C6F83041FB
:10073000D6F8300170BD00BFC85B0300B85B030092
:10074000185C0300285C0300205A03002B4B70B593
:1007500003602B4B83602B4B43612B4B03620025C3
:100760002A4BC362044605714571C56085614562C7
:10077000056329463830FFF73FFF294604F14C0056
:10078000FFF73AFF04F160002946FFF735FF2046E6
:100790001F4B40F8743B04F1C403002240F8042BC3
:1007A0009842FAD1054604F5B2762846002108227F
:1007B00008350AF0D9FFB542F7D1284604F5C272D0
:1007C000002340F8043B9042FAD184F8843104F5C8
:1007D000CB7204F5C373002123F8021B9342FAD1B4
:1007E00004F5CC7504F5DE76284600210C220C3584
:1007F0000AF0BAFFB542F7D1204670BDE85B0300AE
:10080000A85B0300B85B0300C85B0300D85B030070
:10081000905A030038B5D0F82C31044643B94FF450
:10082000DE7000F04FFC0546FFF790FFC4F82C5136
:10083000D4F82C0138BD38B5D0F82C31044643B972
:100840004FF4DE7000F03EFC0546FFF77FFFC4F872
:100850002C51D4F82C0138BD10B503460C4607C9FD
:1008600083E80700E268DA6000221A61184610BDCA
:1008700008B500F5C070FFF7EFFF08BD10B50446DE
:10088000006930B1036861695B6A9847002323619E
:1008900010BD6FF0150010BD03692DE9F04104464D
:1008A0000F46164623B907480749432200F0C8F906
:1008B0002069616903689D6A3A463346AC46BDE8E3
:1008C000F04160472C5D0300305D030003692DE9B2
:1008D000F04104460F46164623B907480749492206
:1008E00000F0AEF9206961690368DD6A3A46334673
:1008F000AC46BDE8F04160472C5D0300305D03006D
:10090000036910B5044623B9054806494F2200F093
:1009100097F9206961690368BDE810401B6B1847AF
:100920002C5D0300305D0300036910B5044623B954
:1009300005480649552200F083F92069616903687A
:10094000BDE810405B6B18472C5D0300305D030071
:1009500003692DE9F04104460F46164623B90748BE
:1009600007495B2200F06CF92069616903689D6B9F
:100970003A463346AC46BDE8F04160472C5D030083
:10098000305D0300036910B5044623B905480649E4
:10099000612200F055F9206961690368BDE81040E3
:1009A000DB6B18472C5D0300305D0300036910B555
:1009B000044623B905480649672200F041F9206939
:1009C00061690368BDE810401B6C18472C5D03008B
:1009D000305D0300036910B5044623B90548064994
:1009E0006D2200F02DF9206961690368BDE81040AF
:1009F0005B6C18472C5D0300305D030070B50D463D
:100A00000169044641B9296828460E6A04F11401B7
:100A1000B04718B9256170BD6FF0150070BD0000BA
:100A2000074B10B50360036904460BB1FFF726FFBF
:100A3000044B23602046FBF705FC204610BD00BF99
:100A4000605D0300F857030010B50446FFF7E8FFA8
:100A5000204600F043FB204610BD000010B50021E9
:100A600004460A46FBF7CAFB034B236000232361BD
:100A70006361204610BD00BF605D030038B5CB68E0
:100A800004460D460BB15B689847EB68E36020466F
:100A900038BD000038B590F90030013304460D46EA
:100AA00004D109480949202200F0CAF894F900103D
:100AB00001234FF0A0428B4015B1C2F8083538BD74
:100AC000C2F80C3538BD00BFA45D0300BC5D030057
:100AD00070B50E460446154602F07EFC013609D07C
:100AE0002046002102F0DEFC20462946BDE8704089
:100AF00002F0B8BC70BD0322FFF7EABF70B50E4626
:100B00000446154602F068FC01360DD02046294601
:100B1000FFF7C0FF2046012102F0C4FC204600215F
:100B2000BDE8704002F09EBC70BD0022FFF7E6BF3A
:100B3000014800F00CB800BF0C5E030038B5036834
:100B400004461B680D46984763681D6038BD0368FE
:100B500070B5DB680446984763685A6823681AB919
:100B60009B68BDE8704018475B6815689847281A6D
:100B70000028636808DC5A68916859601B68002B7C
:100B8000EAD050689847E7E721685A680B6910680F
:100B9000BDE870401847F8B507460D461C46164696
:100BA00002F06EFD79686C604C682E60002334B1F1
:100BB0002268B21A002A02DB2346A468F7E72BB9A1
:100BC0003B684D601B693046984700E09D60AC6013
:100BD000BDE8F84002F098BD38B505460C4602F075
:100BE0004FFD6A685368A3420BD19B6853602A6823
:100BF00013B9936898470AE012691868904706E0AD
:100C0000134623B19A68A242FAD1A2689A60BDE85D
:100C1000384002F079BD03685B68184700487047A8
:100C2000285E03000148FFF792BF00BF285E030063
:100C30000AF08EB90AF0FABD09F0BCBC09F0D6B9C9
:100C400070B506460D46144602F01AFD31462A4696
:100C50002346034800F086F8BDE8704000F020B855
:100C6000305E030038B590F90030013304460D467C
:100C700004D1094809492022FFF7E2FF94F9001046
:100C800001234FF0A0428B4015B1C2F8083538BDA2
:100C9000C2F80C3538BD00BFA45D0300BC5D030085
:100CA0001FB502F0EDFC68461121FFF73EFF01A8D9
:100CB0001221FFF73AFF02A81321FFF736FF03A81E
:100CC0001421FFF732FF68460121FFF7CBFF01A88F
:100CD0000021FFF7C7FF02A80021FFF7C3FF03A809
:100CE0000121FFF7BFFF962000F006FB68460021B8
:100CF000FFF7B8FF01A80121FFF7B4FF02A8012107
:100D0000FFF7B0FF03A80021FFF7ACFF962000F02B
:100D1000F3FAD8E730B50546A1B00C4602F0B0FCB6
:100D20002946684622460FF039FE051E03DC02F014
:100D3000EBFC21B030BD094B1B6823B908480621E4
:100D4000082207F085FD0024AC42F0D01DF8041005
:100D5000034807F031FE0134F6E700BFB04D002034
:100D60006C5800200FB407B504A951F8040B019189
:100D7000FFF7D0FF03B05DF804EB04B07047EFF36A
:100D8000108000F0010080F0010070470FB407B53B
:100D900004A951F8040B0191FFF7BCFF012000F0FA
:100DA0003AF90000014B186800F06ABEAC5200200E
:100DB000034B10B503600446FFF732FE204610BD1A
:100DC000705E030008B5084B1B685BB90748062135
:100DD000082207F03DFD05484FF41651BDE80840D4
:100DE00007F0E2BC08BD00BFB04D00206C580020E9
:100DF00070470000022810B5044601DC002010BD39
:100E000009F024F909230360033C094B53F824003B
:100E1000002243F8242040B103681B699847041E50
:100E2000ECDA09F013F9644204604FF0FF3010BDB2
:100E3000F03B002070B505460E46144609F006F951
:100E40000923022D03600EDC124B1B680BB9FFF760
:100E5000B9FF35462644B54219D00F4815F8011B95
:100E600007F0AAFDF7E7033D0C4B53F8250058B1F6
:100E700003682246DB6831469847041E07DA09F00A
:100E8000E5F86342036002E04FF0FF3070BD20469A
:100E900070BD00BFB04D00206C580020F03B00201A
:100EA00070B504460D46164609F0D0F80923022C09
:100EB00003600ADC104B1B680BB9FFF783FF0F4878
:100EC00007F0A6FC2870012070BD033C0C4B53F8C2
:100ED000240058B1036829469B6832469847041E8F
:100EE00007DA09F0B3F86342036002E04FF0FF3025
:100EF00070BD204670BD00BFB04D00206C58002072
:100F0000F03B002010B5044609F0A0F80923022C9C
:100F100003600EDD033C0A4B53F8240058B103680C
:100F20009B699847041E09DA09F090F8644204604E
:100F300001E0012010BD4FF0FF3010BD002010BDBA
:100F4000F03B002070B504460E46154609F07EF8C9
:100F50000923022C03600BDD033C084B53F82400EB
:100F600040B1036831462A46DB69BDE87040184746
:100F7000002070BD4FF0FF3070BD00BFF03B00207F
:100F8000022808B504DC4FF400534B60002008BD74
:100F900009F05CF8092303604FF0FF3008BD08B585
:100FA000012000F038F808B5FFF722FF00F09AFAA8
:100FB00008BD704708B5FFF7FCFFBDE8084008F022
:100FC00047BD00000C4A136810B51844EFF30881C0
:100FD000884205D3094B0C221A604FF0FF3010BD38
:100FE0000749096821B1074C246821448842F1D29D
:100FF0001060184610BD00BF042F00209458002038
:10100000EC3B0020F03C002008B508B1FFF748FE9B
:10101000FEE70120704708B5FFF7F6FF0120704793
:1010200000210AF09DBE08B500F06AFA08BD08B5B7
:1010300000F06EFA08BD000010B5037803F003035A
:10104000012B04461AD00E4B4FF0FF31186800F008
:10105000EFFC237803F00303012B02D1FFF7A2FE7C
:101060000CE02BB1074808494FF47972FFF7E8FD0F
:10107000237843F002032370012010BD002010BD2F
:10108000AC520020CD5E0300F35E030010B5037880
:1010900003F00303022B044605D0084808494FF427
:1010A0007B72FFF7CDFD237823F0030343F00103A8
:1010B0002370BDE81040FFF775BE00BF185F030046
:1010C000F35E030010B509F033FF044610B902487F
:1010D000FFF75CFE204610BD575F030008B109F022
:1010E0002FBF704710B50446FFF762FE2046FFF79A
:1010F000F5FF204610BD000010B504460C48FBF774
:1011000057F84FF0FF3100F015F90023094A52F863
:101110002310A14204BF002142F823100133402BC9
:10112000F4D10348FBF744F8BDE8104000F005B9DE
:10113000D03B0020F03B00202DE9F74389464E4983
:1011400005460AF081FF044610B9FFF73BFE8FE029
:1011500028464A490AF078FF18B9FFF733FE012400
:1011600086E0284646490AF06FFF18B9FFF72AFEC5
:1011700002247DE008F06AFF092303604148FBF781
:1011800017F84FF0FF3100F0D5F800243E4E56F826
:101190002430B04663B10134402CF7D108F056FF3B
:1011A000182303603748FBF703F800F0C6F85DE04A
:1011B0004FF0FF33334846F82430FAF7F9FF00F0D8
:1011C000BCF82B783A2B06D1284630496A460AF0FB
:1011D000BFFE009D41E068462946FBF791F868464E
:1011E000FBF7CEF830B946F8240008F02FFF0223B1
:1011F00003603BE06846FBF7B3F820B16846FBF7B5
:10120000B8F8054629E06846FBF7A3F8074630B969
:1012100008F01CFF0223036046F8247026E0182023
:10122000FFF750FF0546FFF719FC194B2B60684686
:10123000FBF784F83946024629F480332846FFF745
:10124000DDFB061E09DA08F001FF764206602DB1CB
:101250002B6828465B68984700E01DB9002348F8D2
:10126000243003E048F82450033401E04FF0FF3409
:10127000204603B0BDE8F083B45E0300935F030033
:10128000BB5E0300D03B0020F03B002088580300E9
:10129000705E030038B50446FFF7F0FA05461CB14E
:1012A000236820465B689847284638BD70B50546D8
:1012B00007F044FC4FF47A7495FBF4F4002C0646D6
:1012C00002DDFFF75CFD28B907F038FC801BA8425F
:1012D000FAD370BD204600F043F8F5E707EE100A98
:1012E000DFED047A67EE277AFDEEE77A17EE900AD3
:1012F000FFF7DCBF002474494FF47A735843FFF7BB
:10130000D5BF000038B500F10805044600211022C1
:1013100028460AF029FA204640F8045F00F068FBEE
:10132000206010B90248FFF731FD204638BD00BFEC
:101330009B5F0300006800F07BBB006800F0A0BB6F
:1013400010B50446006800F0E1FB204610BD000027
:10135000024B1B6803B11847704700BFF43C0020E4
:1013600000F0D4BA7047000008B5024B1B689847DC
:10137000FBE700BF082F0020836A9B0804BF214BB6
:101380001B88F0B5046B08BF9B0804EB830255076C
:1013900048BF043A4FF0807602E94200A2F14005CE
:1013A000A2F14406A2F10C074FF0000E46F804EF3C
:1013B000BE42F9D1C66942F8206C124AC562126871
:1013C0004163D2001AD5112B18D9A3F1100252088B
:1013D000531E29463BB14FF0CC3041F8040C013B81
:1013E00041F8080DF6E7D200C2F10802AB181A1F47
:1013F00094423CBF4FF0CC3243F8042C024B2360A4
:10140000F0BD00BFC45F0300A52E5AE290F825206E
:10141000C36A0AB1603300E020331960704710B529
:1014200090F82540C36A0CB1603300E0203383E8B4
:10143000060010BD08B50B4800F0DAFA0A4B186038
:101440000A4800F0D5FA0A4B18600A4800F0D0FAB2
:10145000094B186009F0D4FC00200146BDE80840A3
:10146000FFF7A8BD50600300AC52002048600300A5
:10147000303D0020CC5F03002C3D0020FFF774BFFF
:1014800010B5044600F014FA21460246BDE81040AB
:101490000148FFF77BBC00BFE45F0300FFF758BFC4
:1014A0000B4A0C4B0C4830B41A60C2F1005303F5E0
:1014B0008033B3F5006F194628BF4FF40061074D24
:1014C000074C01605B1A1A442A60236030BC7047E5
:1014D00098580020F03C002034450020584500205A
:1014E000EC3B002000F06EFBFFF7DAFF0348002121
:1014F00000F008FB00F060F9FEE700000C2F002070
:10150000024B4FF0FF31186800F092BA303D0020D6
:10151000014B186800F0B4BA303D002080F3098810
:101520007047EFF309807047684680F309885A488E
:101530000078C00714BF0220032080F3148870478E
:10154000DFF858C1EFF305831B0618BF6047EFF3C0
:101550001483DB0708BF604700DF7047DFF840C136
:10156000EFF305831B0618BF6047EFF31483DB0717
:1015700008BF604700DF7047EFF30980816911F809
:10158000021CE1BB90E80F1010B5E047BDE8104029
:10159000EFF3098C8CE80700424B93E80600914278
:1015A00008BF704741B91EF0100F16D13E490868B8
:1015B00020F00100086010E01EF0100F06BF2CEDB7
:1015C000108A0120002081F825002CE9F00FC1F8D5
:1015D0002CC00CB401F01CF80CBC1A60D2F82CC062
:1015E000BCE8F00F92F8250000280EBF6FF0020E45
:1015F0006FF0120EBCEC108A8CF30988704710B59E
:101600002A4A1268914209D8294C54F8214090E89E
:101610000F10A047EFF3098C8CE80F0010BD10B538
:1016200000F082FFBDE810401E4B93E80600914297
:1016300008BF7047EFF3098C1EF0100F06BF2CEDAA
:10164000108A0120002081F825002CE9F00FC1F854
:101650002CC00CB400F0DCFF0CBC1A60D2F82CC01B
:10166000BCE8F00F92F8250000280EBF6FF0020EC4
:101670006FF0120EBCEC108A8CF30988704710B51D
:1016800000F0A8FFFFF7CEBF10B500F0A1FF00F0FB
:10169000A1FFFFF7C7BF0000C85F03002B220200B5
:1016A00045220200EC57002034EF00E0000000006B
:1016B000FCFFFFFF0B4A136830B5002433B19D686F
:1016C000A94203D31C46491B1B68F7E703608160EE
:1016D00013B19D68691A99600CB1206030BD10602B
:1016E00030BD00BFA8570020C0B1431C11D00C4B27
:1016F000984211D80B4B1B684FF47A715A1E01FBAC
:101700000020B0FBF3F34FF6FE70834206D898B288
:1017100070474FF6FF7070474FF6FE70704700BF7E
:1017200000093D00C05F030038B1830704D103788E
:10173000002B18BF002070470020704738B50E4DB1
:101740002878B0B90D4C236893F8241000F0D2FF2C
:101750002368DA78FF2A03D1DA6A203282F3098813
:101760006168064A09B982E80A0001F075F90123A7
:101770002B70002038BD00BFA5570020EC5700207B
:10178000014B1878704700BFA557002010B5EFF344
:10179000108434B9EFF305841CB9EFF31484E40723
:1017A00002D4034B187810BDDFF808C000DF10BD6D
:1017B000A55700208117020010B588B0EFF3108301
:1017C000002B33D1EFF30583002B2FD1FFF7DEFF82
:1017D00028B9194C246814B1646804B1A047EFF328
:1017E000148404F00304022C0CD0032C16D0012C1A
:1017F0001ED008AC84F30988104C2478E40705D582
:10180000022404E00D4C2478E4070BD4032484F371
:101810001488BFF34F8FBFF36F8F03E0074C24781A
:10182000E40705D4DFF818C000DF02E0822000E002
:10183000FF2008B010BD00BFDC570020C85F0300C8
:101840003D17020038B515460B46024608B9002080
:1018500038BD00680028FAD09488E11C89B20629B6
:10186000F5D8D16809B1126900E00A4624B20434FF
:1018700044EA012100F07CFF0028E8D0094B0A4A25
:10188000013853F82040E36A5A63084B1B6833B1B0
:101890009B6823B1E07829469847E06300E0E56360
:1018A000204638BD08520020511A0200DC570020A3
:1018B00008B500F017FF18B10138024B53F82000AB
:1018C00008BD00BF0852002010B5FFF72DFF0446E9
:1018D00070B1084B1B681BB1DB680BB1C06B98473C
:1018E000E07800F099FFFF280CBF8120002010BD98
:1018F000802010BDDC57002008B528B1FFF7F4FEAA
:1019000001F0F0F8402008BD08BD000010B5EFF36D
:10191000108434B9EFF305841CB9DFF80CC000DF84
:1019200010BD822010BD0000F9180200830704D109
:1019300028B1436901691B6803E0002300E0034606
:10194000194618467047000010B504460846DFF8EF
:101950000CC000DF84E80300204610BD2D190200F2
:1019600010B548B1046824B1237823B9204600F0AB
:101970007EFC204610BD002010BD70B510F00304A1
:1019800005460E4611D180B10378032B0DD10846D0
:10199000FFF7AAFE0146284600F036FD012806D1D1
:1019A000002E14BFC120812070BD802070BD204654
:1019B00070BD820708B50AD148B10378032B06D160
:1019C00000F0B2FCFF280CBF8120002008BD802061
:1019D00008BD10B510F0030407D130B10378032B14
:1019E00003D100F04DFC204610BD802010BD00004A
:1019F00070B50546EFF3108494B9EFF305868EB900
:101A0000EFF31484E40706D4074C24781CB9BDE82E
:101A10007040FFF7A5BF2846DFF810C000DF70BD9B
:101A2000002070BD204670BDA5570020611902003E
:101A300010B5EFF3108434B9EFF305841CB9DFF867
:101A40000CC000DF10BD822010BD00007B19020019
:101A5000084908B508684FF0FF31FFF7E9FFDFF8E4
:101A600018C000DF0446FFF719FD2046DFF80CC060
:101A700000DFFEE7A0570020B1180200C9180200DD
:101A800010B5EFF3108434B9EFF305841CB9DFF817
:101A90000CC000DF10BD822010BD0000B319020091
:101AA0002DE9F04180460F461646EFF31084F4B955
:101AB000EFF30583E3B9EFF31483DB0706D40E4B92
:101AC0001B781BB9BDE8F041FFF7BCBE0B4D4FF0D2
